{
  "contractName": "DigitalDiary",
  "abi": [
    {
      "inputs": [
        {
          "internalType": "address",
          "name": "",
          "type": "address"
        },
        {
          "internalType": "uint256",
          "name": "",
          "type": "uint256"
        }
      ],
      "name": "diary",
      "outputs": [
        {
          "internalType": "string",
          "name": "content",
          "type": "string"
        },
        {
          "internalType": "uint256",
          "name": "timestamp",
          "type": "uint256"
        }
      ],
      "stateMutability": "view",
      "type": "function",
      "constant": true
    },
    {
      "inputs": [
        {
          "internalType": "string",
          "name": "_content",
          "type": "string"
        }
      ],
      "name": "addEntry",
      "outputs": [],
      "stateMutability": "nonpayable",
      "type": "function"
    },
    {
      "inputs": [],
      "name": "getEntries",
      "outputs": [
        {
          "components": [
            {
              "internalType": "string",
              "name": "content",
              "type": "string"
            },
            {
              "internalType": "uint256",
              "name": "timestamp",
              "type": "uint256"
            }
          ],
          "internalType": "struct DigitalDiary.Entry[]",
          "name": "",
          "type": "tuple[]"
        }
      ],
      "stateMutability": "view",
      "type": "function",
      "constant": true
    }
  ],
  "bytecode": "0x608060405234801561001057600080fd5b506108fd806100206000396000f3fe608060405234801561001057600080fd5b50600436106100415760003560e01c806317be85c31461004657806317ce42bd14610064578063688ebb9014610080575b600080fd5b61004e6100b1565b60405161005b9190610661565b60405180910390f35b61007e600480360381019061007991906104ca565b6101e8565b005b61009a6004803603810190610095919061048e565b610290565b6040516100a8929190610683565b60405180910390f35b60606000803373ffffffffffffffffffffffffffffffffffffffff1673ffffffffffffffffffffffffffffffffffffffff168152602001908152602001600020805480602002602001604051908101604052809291908181526020016000905b828210156101df5783829060005260206000209060020201604051806040016040529081600082018054610144906107f8565b80601f0160208091040260200160405190810160405280929190818152602001828054610170906107f8565b80156101bd5780601f10610192576101008083540402835291602001916101bd565b820191906000526020600020905b8154815290600101906020018083116101a057829003601f168201915b5050505050815260200160018201548152505081526020019060010190610111565b50505050905090565b6000803373ffffffffffffffffffffffffffffffffffffffff1673ffffffffffffffffffffffffffffffffffffffff16815260200190815260200160002060405180604001604052808381526020014281525090806001815401808255809150506001900390600052602060002090600202016000909190919091506000820151816000019080519060200190610280929190610359565b5060208201518160010155505050565b600060205281600052604060002081815481106102ac57600080fd5b9060005260206000209060020201600091509150508060000180546102d0906107f8565b80601f01602080910402602001604051908101604052809291908181526020018280546102fc906107f8565b80156103495780601f1061031e57610100808354040283529160200191610349565b820191906000526020600020905b81548152906001019060200180831161032c57829003601f168201915b5050505050908060010154905082565b828054610365906107f8565b90600052602060002090601f01602090048101928261038757600085556103ce565b82601f106103a057805160ff19168380011785556103ce565b828001600101855582156103ce579182015b828111156103cd5782518255916020019190600101906103b2565b5b5090506103db91906103df565b5090565b5b808211156103f85760008160009055506001016103e0565b5090565b600061040f61040a846106e4565b6106b3565b90508281526020810184848401111561042757600080fd5b6104328482856107b6565b509392505050565b60008135905061044981610899565b92915050565b600082601f83011261046057600080fd5b81356104708482602086016103fc565b91505092915050565b600081359050610488816108b0565b92915050565b600080604083850312156104a157600080fd5b60006104af8582860161043a565b92505060206104c085828601610479565b9150509250929050565b6000602082840312156104dc57600080fd5b600082013567ffffffffffffffff8111156104f657600080fd5b6105028482850161044f565b91505092915050565b60006105178383610606565b905092915050565b600061052a82610724565b6105348185610747565b93508360208202850161054685610714565b8060005b858110156105825784840389528151610563858261050b565b945061056e8361073a565b925060208a0199505060018101905061054a565b50829750879550505050505092915050565b600061059f8261072f565b6105a98185610758565b93506105b98185602086016107c5565b6105c281610888565b840191505092915050565b60006105d88261072f565b6105e28185610769565b93506105f28185602086016107c5565b6105fb81610888565b840191505092915050565b600060408301600083015184820360008601526106238282610594565b91505060208301516106386020860182610643565b508091505092915050565b61064c816107ac565b82525050565b61065b816107ac565b82525050565b6000602082019050818103600083015261067b818461051f565b905092915050565b6000604082019050818103600083015261069d81856105cd565b90506106ac6020830184610652565b9392505050565b6000604051905081810181811067ffffffffffffffff821117156106da576106d9610859565b5b8060405250919050565b600067ffffffffffffffff8211156106ff576106fe610859565b5b601f19601f8301169050602081019050919050565b6000819050602082019050919050565b600081519050919050565b600081519050919050565b6000602082019050919050565b600082825260208201905092915050565b600082825260208201905092915050565b600082825260208201905092915050565b60006107858261078c565b9050919050565b600073ffffffffffffffffffffffffffffffffffffffff82169050919050565b6000819050919050565b82818337600083830152505050565b60005b838110156107e35780820151818401526020810190506107c8565b838111156107f2576000848401525b50505050565b6000600282049050600182168061081057607f821691505b602082108114156108245761082361082a565b5b50919050565b7f4e487b7100000000000000000000000000000000000000000000000000000000600052602260045260246000fd5b7f4e487b7100000000000000000000000000000000000000000000000000000000600052604160045260246000fd5b6000601f19601f8301169050919050565b6108a28161077a565b81146108ad57600080fd5b50565b6108b9816107ac565b81146108c457600080fd5b5056fea2646970667358221220129ca8030419f1639dae7d07e06946b28b8f1ad811069aaee3ad87426551a3df64736f6c63430008000033",
  "immutableReferences": {},
  "source": "// SPDX-License-Identifier: MIT\r\npragma solidity ^0.8.0;\r\n\r\ncontract DigitalDiary {\r\n    struct Entry {\r\n        string content;\r\n        uint256 timestamp;\r\n    }\r\n\r\n    mapping(address => Entry[]) public diary;\r\n\r\n    function addEntry(string memory _content) public {\r\n        diary[msg.sender].push(Entry(_content, block.timestamp));\r\n    }\r\n\r\n    function getEntries() public view returns (Entry[] memory) {\r\n        return diary[msg.sender];\r\n    }\r\n}\r\n",
  "sourcePath": "C:\\Users\\Hp\\DigitalDiary\\contracts\\DigitalDiary.sol",
  "compiler": {
    "name": "solc",
    "version": "0.8.0+commit.c7dfd78e.Emscripten.clang"
  },
  "schemaVersion": "3.4.16",
  "updatedAt": "2025-07-03T18:19:59.448Z",
  "networkType": "ethereum",
  "devdoc": {
    "kind": "dev",
    "methods": {},
    "version": 1
  },
  "userdoc": {
    "kind": "user",
    "methods": {},
    "version": 1
  }
}